{
  "_format": "hh-sol-artifact-1",
  "contractName": "DocumentVerification",
  "sourceName": "contracts/DocumentVerfication.sol",
  "abi": [
    {
      "anonymous": false,
      "inputs": [
        {
          "indexed": false,
          "internalType": "string",
          "name": "hash",
          "type": "string"
        },
        {
          "indexed": false,
          "internalType": "address",
          "name": "uploader",
          "type": "address"
        },
        {
          "indexed": false,
          "internalType": "uint256",
          "name": "timestamp",
          "type": "uint256"
        }
      ],
      "name": "DocumentUploaded",
      "type": "event"
    },
    {
      "inputs": [
        {
          "internalType": "string",
          "name": "",
          "type": "string"
        }
      ],
      "name": "documents",
      "outputs": [
        {
          "internalType": "string",
          "name": "hash",
          "type": "string"
        },
        {
          "internalType": "address",
          "name": "uploader",
          "type": "address"
        },
        {
          "internalType": "uint256",
          "name": "timestamp",
          "type": "uint256"
        }
      ],
      "stateMutability": "view",
      "type": "function"
    },
    {
      "inputs": [
        {
          "internalType": "string",
          "name": "hash",
          "type": "string"
        }
      ],
      "name": "uploadDocument",
      "outputs": [],
      "stateMutability": "nonpayable",
      "type": "function"
    },
    {
      "inputs": [
        {
          "internalType": "string",
          "name": "hash",
          "type": "string"
        }
      ],
      "name": "verifyDocument",
      "outputs": [
        {
          "internalType": "bool",
          "name": "",
          "type": "bool"
        },
        {
          "internalType": "address",
          "name": "",
          "type": "address"
        },
        {
          "internalType": "uint256",
          "name": "",
          "type": "uint256"
        }
      ],
      "stateMutability": "view",
      "type": "function"
    }
  ],
  "bytecode": "0x608060405234801561001057600080fd5b50610ca6806100206000396000f3fe608060405234801561001057600080fd5b50600436106100415760003560e01c8063b3dd697b14610046578063b7f5576d14610078578063beee5eb714610094575b600080fd5b610060600480360381019061005b91906106b5565b6100c6565b60405161006f939291906107d7565b60405180910390f35b610092600480360381019061008d91906106b5565b6101ae565b005b6100ae60048036038101906100a991906106b5565b610399565b6040516100bd93929190610830565b60405180910390f35b6000818051602081018201805184825260208301602085012081835280955050505050506000915090508060000180546100ff90610896565b80601f016020809104026020016040519081016040528092919081815260200182805461012b90610896565b80156101785780601f1061014d57610100808354040283529160200191610178565b820191906000526020600020905b81548152906001019060200180831161015b57829003601f168201915b5050505050908060010160009054906101000a900473ffffffffffffffffffffffffffffffffffffffff16908060020154905083565b60008151116101f2576040517f08c379a00000000000000000000000000000000000000000000000000000000081526004016101e990610913565b60405180910390fd5b600073ffffffffffffffffffffffffffffffffffffffff1660008260405161021a919061096f565b908152602001604051809103902060010160009054906101000a900473ffffffffffffffffffffffffffffffffffffffff1673ffffffffffffffffffffffffffffffffffffffff16146102a2576040517f08c379a0000000000000000000000000000000000000000000000000000000008152600401610299906109d2565b60405180910390fd5b60405180606001604052808281526020013373ffffffffffffffffffffffffffffffffffffffff168152602001428152506000826040516102e3919061096f565b908152602001604051809103902060008201518160000190816103069190610b9e565b5060208201518160010160006101000a81548173ffffffffffffffffffffffffffffffffffffffff021916908373ffffffffffffffffffffffffffffffffffffffff160217905550604082015181600201559050507f0d853b934fd4d28d8165753fe86c44d6cf505c48d5efc521bcfe72a26467bae881334260405161038e939291906107d7565b60405180910390a150565b60008060008073ffffffffffffffffffffffffffffffffffffffff166000856040516103c5919061096f565b908152602001604051809103902060010160009054906101000a900473ffffffffffffffffffffffffffffffffffffffff1673ffffffffffffffffffffffffffffffffffffffff16146105485760008085604051610423919061096f565b908152602001604051809103902060405180606001604052908160008201805461044c90610896565b80601f016020809104026020016040519081016040528092919081815260200182805461047890610896565b80156104c55780601f1061049a576101008083540402835291602001916104c5565b820191906000526020600020905b8154815290600101906020018083116104a857829003601f168201915b505050505081526020016001820160009054906101000a900473ffffffffffffffffffffffffffffffffffffffff1673ffffffffffffffffffffffffffffffffffffffff1673ffffffffffffffffffffffffffffffffffffffff168152602001600282015481525050905060018160200151826040015193509350935050610554565b60008060009250925092505b9193909250565b6000604051905090565b600080fd5b600080fd5b600080fd5b600080fd5b6000601f19601f8301169050919050565b7f4e487b7100000000000000000000000000000000000000000000000000000000600052604160045260246000fd5b6105c282610579565b810181811067ffffffffffffffff821117156105e1576105e061058a565b5b80604052505050565b60006105f461055b565b905061060082826105b9565b919050565b600067ffffffffffffffff8211156106205761061f61058a565b5b61062982610579565b9050602081019050919050565b82818337600083830152505050565b600061065861065384610605565b6105ea565b90508281526020810184848401111561067457610673610574565b5b61067f848285610636565b509392505050565b600082601f83011261069c5761069b61056f565b5b81356106ac848260208601610645565b91505092915050565b6000602082840312156106cb576106ca610565565b5b600082013567ffffffffffffffff8111156106e9576106e861056a565b5b6106f584828501610687565b91505092915050565b600081519050919050565b600082825260208201905092915050565b60005b8381101561073857808201518184015260208101905061071d565b60008484015250505050565b600061074f826106fe565b6107598185610709565b935061076981856020860161071a565b61077281610579565b840191505092915050565b600073ffffffffffffffffffffffffffffffffffffffff82169050919050565b60006107a88261077d565b9050919050565b6107b88161079d565b82525050565b6000819050919050565b6107d1816107be565b82525050565b600060608201905081810360008301526107f18186610744565b905061080060208301856107af565b61080d60408301846107c8565b949350505050565b60008115159050919050565b61082a81610815565b82525050565b60006060820190506108456000830186610821565b61085260208301856107af565b61085f60408301846107c8565b949350505050565b7f4e487b7100000000000000000000000000000000000000000000000000000000600052602260045260246000fd5b600060028204905060018216806108ae57607f821691505b6020821081036108c1576108c0610867565b5b50919050565b7f486173682063616e6e6f7420626520656d707479000000000000000000000000600082015250565b60006108fd601483610709565b9150610908826108c7565b602082019050919050565b6000602082019050818103600083015261092c816108f0565b9050919050565b600081905092915050565b6000610949826106fe565b6109538185610933565b935061096381856020860161071a565b80840191505092915050565b600061097b828461093e565b915081905092915050565b7f446f63756d656e7420616c726561647920657869737473000000000000000000600082015250565b60006109bc601783610709565b91506109c782610986565b602082019050919050565b600060208201905081810360008301526109eb816109af565b9050919050565b60008190508160005260206000209050919050565b60006020601f8301049050919050565b600082821b905092915050565b600060088302610a547fffffffffffffffffffffffffffffffffffffffffffffffffffffffffffffffff82610a17565b610a5e8683610a17565b95508019841693508086168417925050509392505050565b6000819050919050565b6000610a9b610a96610a91846107be565b610a76565b6107be565b9050919050565b6000819050919050565b610ab583610a80565b610ac9610ac182610aa2565b848454610a24565b825550505050565b600090565b610ade610ad1565b610ae9818484610aac565b505050565b5b81811015610b0d57610b02600082610ad6565b600181019050610aef565b5050565b601f821115610b5257610b23816109f2565b610b2c84610a07565b81016020851015610b3b578190505b610b4f610b4785610a07565b830182610aee565b50505b505050565b600082821c905092915050565b6000610b7560001984600802610b57565b1980831691505092915050565b6000610b8e8383610b64565b9150826002028217905092915050565b610ba7826106fe565b67ffffffffffffffff811115610bc057610bbf61058a565b5b610bca8254610896565b610bd5828285610b11565b600060209050601f831160018114610c085760008415610bf6578287015190505b610c008582610b82565b865550610c68565b601f198416610c16866109f2565b60005b82811015610c3e57848901518255600182019150602085019450602081019050610c19565b86831015610c5b5784890151610c57601f891682610b64565b8355505b6001600288020188555050505b50505050505056fea26469706673582212205a34ef3404a764a2c1b9c9bd47957367fbeb0b8c5e393e59299b25789492bfbb64736f6c63430008180033",
  "linkReferences": {},
  "deployedLinkReferences": {}
}